{
  "contractName": "Web3Sword",
  "abi": [
    {
      "anonymous": false,
      "inputs": [
        {
          "indexed": false,
          "internalType": "address",
          "name": "previousAdmin",
          "type": "address"
        },
        {
          "indexed": false,
          "internalType": "address",
          "name": "newAdmin",
          "type": "address"
        }
      ],
      "name": "AdminChanged",
      "type": "event"
    },
    {
      "anonymous": false,
      "inputs": [
        {
          "indexed": true,
          "internalType": "address",
          "name": "account",
          "type": "address"
        },
        {
          "indexed": true,
          "internalType": "address",
          "name": "operator",
          "type": "address"
        },
        {
          "indexed": false,
          "internalType": "bool",
          "name": "approved",
          "type": "bool"
        }
      ],
      "name": "ApprovalForAll",
      "type": "event"
    },
    {
      "anonymous": false,
      "inputs": [
        {
          "indexed": true,
          "internalType": "address",
          "name": "beacon",
          "type": "address"
        }
      ],
      "name": "BeaconUpgraded",
      "type": "event"
    },
    {
      "anonymous": false,
      "inputs": [
        {
          "indexed": true,
          "internalType": "address",
          "name": "buyer",
          "type": "address"
        },
        {
          "indexed": false,
          "internalType": "uint256",
          "name": "tokenId",
          "type": "uint256"
        },
        {
          "indexed": false,
          "internalType": "uint256",
          "name": "value",
          "type": "uint256"
        }
      ],
      "name": "BuySuccess",
      "type": "event"
    },
    {
      "anonymous": false,
      "inputs": [
        {
          "indexed": true,
          "internalType": "address",
          "name": "previousOwner",
          "type": "address"
        },
        {
          "indexed": true,
          "internalType": "address",
          "name": "newOwner",
          "type": "address"
        }
      ],
      "name": "OwnershipTransferred",
      "type": "event"
    },
    {
      "anonymous": false,
      "inputs": [
        {
          "indexed": false,
          "internalType": "uint256",
          "name": "newPrice",
          "type": "uint256"
        }
      ],
      "name": "ResetPrice",
      "type": "event"
    },
    {
      "anonymous": false,
      "inputs": [
        {
          "indexed": false,
          "internalType": "uint256",
          "name": "value",
          "type": "uint256"
        }
      ],
      "name": "SelledCountUpdate",
      "type": "event"
    },
    {
      "anonymous": false,
      "inputs": [
        {
          "indexed": true,
          "internalType": "address",
          "name": "claimer",
          "type": "address"
        },
        {
          "indexed": false,
          "internalType": "uint256",
          "name": "tokenId",
          "type": "uint256"
        },
        {
          "indexed": false,
          "internalType": "uint8",
          "name": "t",
          "type": "uint8"
        }
      ],
      "name": "SocialClaimSuccess",
      "type": "event"
    },
    {
      "anonymous": false,
      "inputs": [
        {
          "indexed": true,
          "internalType": "address",
          "name": "operator",
          "type": "address"
        },
        {
          "indexed": true,
          "internalType": "address",
          "name": "from",
          "type": "address"
        },
        {
          "indexed": true,
          "internalType": "address",
          "name": "to",
          "type": "address"
        },
        {
          "indexed": false,
          "internalType": "uint256[]",
          "name": "ids",
          "type": "uint256[]"
        },
        {
          "indexed": false,
          "internalType": "uint256[]",
          "name": "values",
          "type": "uint256[]"
        }
      ],
      "name": "TransferBatch",
      "type": "event"
    },
    {
      "anonymous": false,
      "inputs": [
        {
          "indexed": true,
          "internalType": "address",
          "name": "operator",
          "type": "address"
        },
        {
          "indexed": true,
          "internalType": "address",
          "name": "from",
          "type": "address"
        },
        {
          "indexed": true,
          "internalType": "address",
          "name": "to",
          "type": "address"
        },
        {
          "indexed": false,
          "internalType": "uint256",
          "name": "id",
          "type": "uint256"
        },
        {
          "indexed": false,
          "internalType": "uint256",
          "name": "value",
          "type": "uint256"
        }
      ],
      "name": "TransferSingle",
      "type": "event"
    },
    {
      "anonymous": false,
      "inputs": [
        {
          "indexed": false,
          "internalType": "string",
          "name": "value",
          "type": "string"
        },
        {
          "indexed": true,
          "internalType": "uint256",
          "name": "id",
          "type": "uint256"
        }
      ],
      "name": "URI",
      "type": "event"
    },
    {
      "anonymous": false,
      "inputs": [
        {
          "indexed": true,
          "internalType": "address",
          "name": "implementation",
          "type": "address"
        }
      ],
      "name": "Upgraded",
      "type": "event"
    },
    {
      "anonymous": false,
      "inputs": [
        {
          "indexed": true,
          "internalType": "address",
          "name": "",
          "type": "address"
        },
        {
          "indexed": false,
          "internalType": "uint256",
          "name": "value",
          "type": "uint256"
        }
      ],
      "name": "Withdrawal",
      "type": "event"
    },
    {
      "inputs": [
        {
          "internalType": "address",
          "name": "account",
          "type": "address"
        },
        {
          "internalType": "uint256",
          "name": "id",
          "type": "uint256"
        }
      ],
      "name": "balanceOf",
      "outputs": [
        {
          "internalType": "uint256",
          "name": "",
          "type": "uint256"
        }
      ],
      "stateMutability": "view",
      "type": "function",
      "constant": true
    },
    {
      "inputs": [
        {
          "internalType": "address[]",
          "name": "accounts",
          "type": "address[]"
        },
        {
          "internalType": "uint256[]",
          "name": "ids",
          "type": "uint256[]"
        }
      ],
      "name": "balanceOfBatch",
      "outputs": [
        {
          "internalType": "uint256[]",
          "name": "",
          "type": "uint256[]"
        }
      ],
      "stateMutability": "view",
      "type": "function",
      "constant": true
    },
    {
      "inputs": [
        {
          "internalType": "uint256",
          "name": "",
          "type": "uint256"
        }
      ],
      "name": "blockById",
      "outputs": [
        {
          "internalType": "uint256",
          "name": "tokenId",
          "type": "uint256"
        },
        {
          "internalType": "address",
          "name": "ownerAddress",
          "type": "address"
        },
        {
          "internalType": "string",
          "name": "imgURL",
          "type": "string"
        },
        {
          "internalType": "uint256",
          "name": "number",
          "type": "uint256"
        }
      ],
      "stateMutability": "view",
      "type": "function",
      "constant": true
    },
    {
      "inputs": [],
      "name": "currentPrice",
      "outputs": [
        {
          "internalType": "uint256",
          "name": "",
          "type": "uint256"
        }
      ],
      "stateMutability": "view",
      "type": "function",
      "constant": true
    },
    {
      "inputs": [
        {
          "internalType": "address",
          "name": "account",
          "type": "address"
        },
        {
          "internalType": "address",
          "name": "operator",
          "type": "address"
        }
      ],
      "name": "isApprovedForAll",
      "outputs": [
        {
          "internalType": "bool",
          "name": "",
          "type": "bool"
        }
      ],
      "stateMutability": "view",
      "type": "function",
      "constant": true
    },
    {
      "inputs": [],
      "name": "owner",
      "outputs": [
        {
          "internalType": "address",
          "name": "",
          "type": "address"
        }
      ],
      "stateMutability": "view",
      "type": "function",
      "constant": true
    },
    {
      "inputs": [],
      "name": "proxiableUUID",
      "outputs": [
        {
          "internalType": "bytes32",
          "name": "",
          "type": "bytes32"
        }
      ],
      "stateMutability": "view",
      "type": "function",
      "constant": true
    },
    {
      "inputs": [],
      "name": "renounceOwnership",
      "outputs": [],
      "stateMutability": "nonpayable",
      "type": "function"
    },
    {
      "inputs": [
        {
          "internalType": "address",
          "name": "from",
          "type": "address"
        },
        {
          "internalType": "address",
          "name": "to",
          "type": "address"
        },
        {
          "internalType": "uint256[]",
          "name": "ids",
          "type": "uint256[]"
        },
        {
          "internalType": "uint256[]",
          "name": "amounts",
          "type": "uint256[]"
        },
        {
          "internalType": "bytes",
          "name": "data",
          "type": "bytes"
        }
      ],
      "name": "safeBatchTransferFrom",
      "outputs": [],
      "stateMutability": "nonpayable",
      "type": "function"
    },
    {
      "inputs": [
        {
          "internalType": "address",
          "name": "from",
          "type": "address"
        },
        {
          "internalType": "address",
          "name": "to",
          "type": "address"
        },
        {
          "internalType": "uint256",
          "name": "id",
          "type": "uint256"
        },
        {
          "internalType": "uint256",
          "name": "amount",
          "type": "uint256"
        },
        {
          "internalType": "bytes",
          "name": "data",
          "type": "bytes"
        }
      ],
      "name": "safeTransferFrom",
      "outputs": [],
      "stateMutability": "nonpayable",
      "type": "function"
    },
    {
      "inputs": [],
      "name": "selledCount",
      "outputs": [
        {
          "internalType": "uint256",
          "name": "",
          "type": "uint256"
        }
      ],
      "stateMutability": "view",
      "type": "function",
      "constant": true
    },
    {
      "inputs": [
        {
          "internalType": "address",
          "name": "operator",
          "type": "address"
        },
        {
          "internalType": "bool",
          "name": "approved",
          "type": "bool"
        }
      ],
      "name": "setApprovalForAll",
      "outputs": [],
      "stateMutability": "nonpayable",
      "type": "function"
    },
    {
      "inputs": [
        {
          "internalType": "bytes4",
          "name": "interfaceId",
          "type": "bytes4"
        }
      ],
      "name": "supportsInterface",
      "outputs": [
        {
          "internalType": "bool",
          "name": "",
          "type": "bool"
        }
      ],
      "stateMutability": "view",
      "type": "function",
      "constant": true
    },
    {
      "inputs": [
        {
          "internalType": "uint256",
          "name": "",
          "type": "uint256"
        },
        {
          "internalType": "uint256",
          "name": "",
          "type": "uint256"
        }
      ],
      "name": "swordMatrix",
      "outputs": [
        {
          "internalType": "uint8",
          "name": "",
          "type": "uint8"
        }
      ],
      "stateMutability": "view",
      "type": "function",
      "constant": true
    },
    {
      "inputs": [
        {
          "internalType": "address",
          "name": "newOwner",
          "type": "address"
        }
      ],
      "name": "transferOwnership",
      "outputs": [],
      "stateMutability": "nonpayable",
      "type": "function"
    },
    {
      "inputs": [
        {
          "internalType": "address",
          "name": "newImplementation",
          "type": "address"
        }
      ],
      "name": "upgradeTo",
      "outputs": [],
      "stateMutability": "nonpayable",
      "type": "function"
    },
    {
      "inputs": [
        {
          "internalType": "address",
          "name": "newImplementation",
          "type": "address"
        },
        {
          "internalType": "bytes",
          "name": "data",
          "type": "bytes"
        }
      ],
      "name": "upgradeToAndCall",
      "outputs": [],
      "stateMutability": "payable",
      "type": "function",
      "payable": true
    },
    {
      "inputs": [
        {
          "internalType": "contract IMetadata",
          "name": "_metadataGenertaor",
          "type": "address"
        }
      ],
      "name": "initialize",
      "outputs": [],
      "stateMutability": "nonpayable",
      "type": "function"
    },
    {
      "inputs": [
        {
          "internalType": "uint256",
          "name": "tokenId",
          "type": "uint256"
        }
      ],
      "name": "buy",
      "outputs": [],
      "stateMutability": "payable",
      "type": "function",
      "payable": true
    },
    {
      "inputs": [
        {
          "internalType": "uint256",
          "name": "price",
          "type": "uint256"
        }
      ],
      "name": "resetCurrentPrice",
      "outputs": [],
      "stateMutability": "nonpayable",
      "type": "function"
    },
    {
      "inputs": [
        {
          "internalType": "address",
          "name": "to",
          "type": "address"
        },
        {
          "internalType": "uint256",
          "name": "tokenId",
          "type": "uint256"
        },
        {
          "internalType": "uint8",
          "name": "t",
          "type": "uint8"
        }
      ],
      "name": "socialClaim",
      "outputs": [],
      "stateMutability": "nonpayable",
      "type": "function"
    },
    {
      "inputs": [
        {
          "internalType": "uint8",
          "name": "t",
          "type": "uint8"
        }
      ],
      "name": "socialCanClaimTokenIds",
      "outputs": [
        {
          "internalType": "uint256[]",
          "name": "",
          "type": "uint256[]"
        }
      ],
      "stateMutability": "view",
      "type": "function",
      "constant": true
    },
    {
      "inputs": [
        {
          "internalType": "uint256",
          "name": "tokenId",
          "type": "uint256"
        },
        {
          "internalType": "string",
          "name": "_uri",
          "type": "string"
        }
      ],
      "name": "upload",
      "outputs": [],
      "stateMutability": "nonpayable",
      "type": "function"
    },
    {
      "inputs": [
        {
          "internalType": "uint256",
          "name": "value",
          "type": "uint256"
        }
      ],
      "name": "withdraw",
      "outputs": [],
      "stateMutability": "nonpayable",
      "type": "function"
    },
    {
      "inputs": [
        {
          "internalType": "uint256",
          "name": "",
          "type": "uint256"
        }
      ],
      "name": "name",
      "outputs": [
        {
          "internalType": "string",
          "name": "",
          "type": "string"
        }
      ],
      "stateMutability": "view",
      "type": "function",
      "constant": true
    },
    {
      "inputs": [
        {
          "internalType": "uint256",
          "name": "id",
          "type": "uint256"
        }
      ],
      "name": "uri",
      "outputs": [
        {
          "internalType": "string",
          "name": "",
          "type": "string"
        }
      ],
      "stateMutability": "view",
      "type": "function",
      "constant": true
    }
  ],
  "bytecode": "0x60a06040523060805234801561001457600080fd5b5060805161591c6200004d600039600081816107e10152818161082101528181610be801528181610c280152610cbb015261591c6000f3fe60806040526004361061017f5760003560e01c8063715018a6116100d1578063d96a094a1161008a578063f242432a11610064578063f242432a146104a1578063f2fde38b146104c1578063f567f405146104e1578063f7f10f69146104f857600080fd5b8063d96a094a14610413578063e8a083b114610426578063e985e9c51461045857600080fd5b8063715018a61461035f5780638da5cb5b146103745780639d1b464a1461039c578063a22cb465146103b3578063bcf3e129146103d3578063c4d66de8146103f357600080fd5b80633659cfe61161013e5780634f1ef286116101185780634f1ef286146102e757806352d1902d146102fa5780635f347c4f1461030f57806362ba2e561461032f57600080fd5b80633659cfe61461027a5780634d725e951461029a5780634e1273f4146102ba57600080fd5b8062ad800c14610184578062fdd58e146101ba57806301ffc9a7146101e85780630e89341c146102185780632e1a7d4d146102385780632eb2c2d61461025a575b600080fd5b34801561019057600080fd5b506101a461019f366004614ca6565b610518565b6040516101b19190614d17565b60405180910390f35b3480156101c657600080fd5b506101da6101d5366004614d3f565b6105a0565b6040519081526020016101b1565b3480156101f457600080fd5b50610208610203366004614d81565b610639565b60405190151581526020016101b1565b34801561022457600080fd5b506101a4610233366004614ca6565b610689565b34801561024457600080fd5b50610258610253366004614ca6565b610694565b005b34801561026657600080fd5b50610258610275366004614f04565b61073f565b34801561028657600080fd5b50610258610295366004614fb2565b6107d6565b3480156102a657600080fd5b506102586102b5366004614fcf565b6108b6565b3480156102c657600080fd5b506102da6102d536600461502a565b610ab3565b6040516101b19190615128565b6102586102f536600461513b565b610bdd565b34801561030657600080fd5b506101da610cae565b34801561031b57600080fd5b506102da61032a366004615197565b610d62565b34801561033b57600080fd5b5061034f61034a366004614ca6565b6110c2565b6040516101b194939291906151b2565b34801561036b57600080fd5b5061025861117e565b34801561038057600080fd5b506097546040516001600160a01b0390911681526020016101b1565b3480156103a857600080fd5b506101da6101305481565b3480156103bf57600080fd5b506102586103ce3660046151ed565b6111b4565b3480156103df57600080fd5b506102586103ee366004614ca6565b6111bf565b3480156103ff57600080fd5b5061025861040e366004614fb2565b611225565b610258610421366004614ca6565b61377f565b34801561043257600080fd5b5061044661044136600461522b565b613841565b60405160ff90911681526020016101b1565b34801561046457600080fd5b5061020861047336600461524d565b6001600160a01b03918216600090815260666020908152604080832093909416825291909152205460ff1690565b3480156104ad57600080fd5b506102586104bc36600461527b565b613891565b3480156104cd57600080fd5b506102586104dc366004614fb2565b613918565b3480156104ed57600080fd5b506101da6101335481565b34801561050457600080fd5b506102586105133660046152e4565b6139b0565b61013254604080516306fdde0360e01b815290516060926001600160a01b0316916306fdde03916004808301926000929190829003018186803b15801561055e57600080fd5b505afa158015610572573d6000803e3d6000fd5b505050506040513d6000823e601f3d908101601f1916820160405261059a9190810190615322565b92915050565b60006001600160a01b0383166106115760405162461bcd60e51b815260206004820152602b60248201527f455243313135353a2062616c616e636520717565727920666f7220746865207a60448201526a65726f206164647265737360a81b60648201526084015b60405180910390fd5b5060009081526065602090815260408083206001600160a01b03949094168352929052205490565b60006001600160e01b03198216636cdb3d1360e11b148061066a57506001600160e01b031982166303a24d0760e21b145b8061059a57506301ffc9a760e01b6001600160e01b031983161461059a565b606061059a82613a30565b6097546001600160a01b031633146106be5760405162461bcd60e51b8152600401610608906153a4565b600081116106cb57600080fd5b478111156106d857600080fd5b604051339082156108fc029083906000818181858888f19350505050158015610705573d6000803e3d6000fd5b5060405181815233907f7fcf532c15f0a6db0bd6d0e038bea71d30d808c7d98cb3bf7268a95bf5081b65906020015b60405180910390a250565b6001600160a01b03851633148061075b575061075b8533610473565b6107c25760405162461bcd60e51b815260206004820152603260248201527f455243313135353a207472616e736665722063616c6c6572206973206e6f74206044820152711bdddb995c881b9bdc88185c1c1c9bdd995960721b6064820152608401610608565b6107cf8585858585613bf7565b5050505050565b306001600160a01b037f000000000000000000000000000000000000000000000000000000000000000016141561081f5760405162461bcd60e51b8152600401610608906153d9565b7f00000000000000000000000000000000000000000000000000000000000000006001600160a01b0316610868600080516020615880833981519152546001600160a01b031690565b6001600160a01b03161461088e5760405162461bcd60e51b815260040161060890615425565b61089781613dd7565b604080516000808252602082019092526108b391839190613e01565b50565b600082815261012e6020908152604080832081516080810183528154815260018201546001600160a01b03169381019390935260028101805491928401916108fd90615471565b80601f016020809104026020016040519081016040528092919081815260200182805461092990615471565b80156109765780601f1061094b57610100808354040283529160200191610976565b820191906000526020600020905b81548152906001019060200180831161095957829003601f168201915b5050505050815260200160038201548152505090506109923390565b6001600160a01b031681602001516001600160a01b031614610a025760405162461bcd60e51b815260206004820152602360248201527f596f7520617265206e6f7420746865206f776e6572206f66207468697320626c6044820152626f636b60e81b6064820152608401610608565b6040818101838152600085815261012e602090815292902083518155828401516001820180546001600160a01b0319166001600160a01b03909216919091179055905180518493610a5a926002850192910190614b70565b50606082015181600301559050506000610a7384613a30565b9050837f6bb7ff708619ba0610cba295a58592e0451dee2622938c8755667688daf3529b82604051610aa59190614d17565b60405180910390a250505050565b60608151835114610b185760405162461bcd60e51b815260206004820152602960248201527f455243313135353a206163636f756e747320616e6420696473206c656e677468604482015268040dad2e6dac2e8c6d60bb1b6064820152608401610608565b6000835167ffffffffffffffff811115610b3457610b34614d9e565b604051908082528060200260200182016040528015610b5d578160200160208202803683370190505b50905060005b8451811015610bd557610ba8858281518110610b8157610b816154ac565b6020026020010151858381518110610b9b57610b9b6154ac565b60200260200101516105a0565b828281518110610bba57610bba6154ac565b6020908102919091010152610bce816154d8565b9050610b63565b509392505050565b306001600160a01b037f0000000000000000000000000000000000000000000000000000000000000000161415610c265760405162461bcd60e51b8152600401610608906153d9565b7f00000000000000000000000000000000000000000000000000000000000000006001600160a01b0316610c6f600080516020615880833981519152546001600160a01b031690565b6001600160a01b031614610c955760405162461bcd60e51b815260040161060890615425565b610c9e82613dd7565b610caa82826001613e01565b5050565b6000306001600160a01b037f00000000000000000000000000000000000000000000000000000000000000001614610d4e5760405162461bcd60e51b815260206004820152603860248201527f555550535570677261646561626c653a206d757374206e6f742062652063616c60448201527f6c6564207468726f7567682064656c656761746563616c6c00000000000000006064820152608401610608565b506000805160206158808339815191525b90565b60606000808060d260ff861660051415610dc5576064610d838260096154f3565b610d8d9190615528565b93506064610d9b82826154f3565b610da59190615528565b92506064610db48260046154f3565b610dbe9190615528565b9150610e53565b60ff861660061415610dfb57600093506064610de28260636154f3565b610dec9190615528565b92506064610db48260036154f3565b60ff861660031415610e53576064610e148260016154f3565b610e1e9190615528565b93506064610e2d82605a6154f3565b610e379190615528565b92506064610e4682600c6154f3565b610e509190615528565b91505b6000828561013354610e65919061553c565b610e6f9190615528565b90506000808267ffffffffffffffff811115610e8d57610e8d614d9e565b604051908082528060200260200182016040528015610eb6578160200160208202803683370190505b50905086610133541015610ed05798975050505050505050565b82610ee15798975050505050505050565b60005b610131548110156110b55760006101318281548110610f0557610f056154ac565b90600052602060002001805480602002602001604051908101604052809291908181526020018280548015610f7757602002820191906000526020600020906000905b825461010083900a900460ff16815260206001928301818104948501949093039092029101808411610f485790505b5050505050905060005b81518110156110a0578b60ff166101318481548110610fa257610fa26154ac565b906000526020600020018281548110610fbd57610fbd6154ac565b60009182526020918290209181049091015460ff601f9092166101000a90041614610fe75761108e565b85610ffc5750919a9950505050505050505050565b600061101c61100c836001615553565b611017866001615553565b613f80565b600081815261012e60205260409020600101549091506001600160a01b0316156110535761104b60018861553c565b96505061108e565b80858781518110611066576110666154ac565b60209081029190910101528561107b816154d8565b965061108a905060018861553c565b9650505b80611098816154d8565b915050610f81565b505080806110ad906154d8565b915050610ee4565b5098975050505050505050565b61012e6020526000908152604090208054600182015460028301805492936001600160a01b03909216926110f590615471565b80601f016020809104026020016040519081016040528092919081815260200182805461112190615471565b801561116e5780601f106111435761010080835404028352916020019161116e565b820191906000526020600020905b81548152906001019060200180831161115157829003601f168201915b5050505050908060030154905084565b6097546001600160a01b031633146111a85760405162461bcd60e51b8152600401610608906153a4565b6111b26000613f99565b565b610caa338383613feb565b6097546001600160a01b031633146111e95760405162461bcd60e51b8152600401610608906153a4565b6101308190556040518181527fac8f29f4224d50dcf2e66da564835b17a8c5ae91225eeb020ab82995cddc83b49060200160405180910390a150565b600054610100900460ff166112405760005460ff1615611244565b303b155b6112a75760405162461bcd60e51b815260206004820152602e60248201527f496e697469616c697a61626c653a20636f6e747261637420697320616c72656160448201526d191e481a5b9a5d1a585b1a5e995960921b6064820152608401610608565b600054610100900460ff161580156112c9576000805461ffff19166101011790555b6112e1604051806020016040528060008152506140cc565b6112e96140fc565b6112f161412b565b61012f805460ff19169055600061013381905561013280546001600160a01b0319166001600160a01b038516179055670214e8348c4f000061013055604080516102008101825282815260208101839052908101829052606081018290526080810182905260a0810182905260c08101829052600160e08201819052610100820181905261012082018390526101408201839052610160820183905261018082018390526101a082018390526101c082018390526101e08201839052610131805491820181559092526113d6916000805160206158a083398151915201906010614bf4565b506040805161020081018252600080825260208201819052918101829052606081018290526080810182905260a0810182905260c08101829052600160e08201819052610100820181905261012082018390526101408201839052610160820183905261018082018390526101a082018390526101c082018390526101e0820183905261013180549182018155909252611482916000805160206158a083398151915201906010614bf4565b506040805161020081018252600080825260208201819052918101829052606081018290526080810182905260a08101829052600160c0820181905260e08201819052610100820181905261012082018190526101408201839052610160820183905261018082018390526101a082018390526101c082018390526101e082018390526101318054918201815590925261152e916000805160206158a083398151915201906010614bf4565b506040805161020081018252600080825260208201819052918101829052606081018290526080810182905260a08101829052600160c0820181905260e08201819052610100820181905261012082018190526101408201839052610160820183905261018082018390526101a082018390526101c082018390526101e08201839052610131805491820181559092526115da916000805160206158a083398151915201906010614bf4565b506040805161020081018252600080825260208201819052918101829052606081018290526080810182905260a0810182905260c08101829052600160e08201819052610100820181905261012082018390526101408201839052610160820183905261018082018390526101a082018390526101c082018390526101e0820183905261013180549182018155909252611686916000805160206158a083398151915201906010614bf4565b506040805161020081018252600080825260208201819052918101829052606081018290526080810182905260a0810182905260c08101829052600160e08201819052610100820181905261012082018390526101408201839052610160820183905261018082018390526101a082018390526101c082018390526101e0820183905261013180549182018155909252611732916000805160206158a083398151915201906010614bf4565b506040805161020081018252600080825260208201819052918101829052606081018290526080810182905260a0810182905260c08101829052600160e08201819052610100820181905261012082018390526101408201839052610160820183905261018082018390526101a082018390526101c082018390526101e08201839052610131805491820181559092526117de916000805160206158a083398151915201906010614bf4565b506040805161020081018252600080825260208201819052918101829052606081018290526080810182905260a0810182905260c08101829052600160e08201819052610100820181905261012082018390526101408201839052610160820183905261018082018390526101a082018390526101c082018390526101e082018390526101318054918201815590925261188a916000805160206158a083398151915201906010614bf4565b506040805161020081018252600080825260208201819052918101829052606081018290526080810182905260a0810182905260c08101829052600160e08201819052610100820181905261012082018390526101408201839052610160820183905261018082018390526101a082018390526101c082018390526101e0820183905261013180549182018155909252611936916000805160206158a083398151915201906010614bf4565b506040805161020081018252600080825260208201819052918101829052606081018290526080810182905260a0810182905260c08101829052600160e08201819052610100820181905261012082018390526101408201839052610160820183905261018082018390526101a082018390526101c082018390526101e08201839052610131805491820181559092526119e2916000805160206158a083398151915201906010614bf4565b506040805161020081018252600080825260208201819052918101829052606081018290526080810182905260a0810182905260c08101829052600160e08201819052610100820181905261012082018390526101408201839052610160820183905261018082018390526101a082018390526101c082018390526101e0820183905261013180549182018155909252611a8e916000805160206158a083398151915201906010614bf4565b506040805161020081018252600080825260208201819052918101829052606081018290526080810182905260a0810182905260c08101829052600160e08201819052610100820181905261012082018390526101408201839052610160820183905261018082018390526101a082018390526101c082018390526101e0820183905261013180549182018155909252611b3a916000805160206158a083398151915201906010614bf4565b506040805161020081018252600080825260208201819052918101829052606081018290526080810182905260a0810182905260c08101829052600660e0820181905261010082015261012081018290526101408101829052610160810182905261018081018290526101a081018290526101c081018290526101e0810182905261013180546001810182559252611be4916000805160206158a083398151915201906010614bf4565b506040805161020081018252600080825260208201819052918101829052606081018290526080810182905260a0810182905260c08101829052600660e0820181905261010082015261012081018290526101408101829052610160810182905261018081018290526101a081018290526101c081018290526101e0810182905261013180546001810182559252611c8e916000805160206158a083398151915201906010614bf4565b506040805161020081018252600180825260208201819052918101829052606081018290526080810182905260a0810182905260c0810182905260e08101829052610100810182905261012081018290526101408101829052610160810182905261018081018290526101a081018290526101c081018290526101e0810182905261013180549283018155600052611d38916000805160206158a083398151915201906010614bf4565b506040805161020081018252600180825260208201819052918101829052606081018290526080810182905260a0810182905260c0810182905260e08101829052610100810182905261012081018290526101408101829052610160810182905261018081018290526101a081018290526101c081018290526101e0810182905261013180549283018155600052611de2916000805160206158a083398151915201906010614bf4565b50604080516102008101825260008082526001602083018190529282018390526060820183905260808201839052600460a0830181905260c0830181905260e0830181905261010083018190526101208301819052610140830152610160820183905261018082018390526101a082018390526101c082018390526101e08201819052610131805493840181559052611e8d916000805160206158a083398151915201906010614bf4565b50604080516102008101825260008082526020820181905291810182905260016060820181905260808201819052600460a0830181905260c0830181905260e0830181905261010083018190526101208301819052610140830152610160820181905261018082018190526101a082018390526101c082018390526101e0820183905261013180549182018155909252611f39916000805160206158a083398151915201906010614bf4565b5060408051610200810182526000808252602082018190529181018290526001606082018190526080820181905260a0820181905260c0820181905260e08201819052610100820181905261012082018190526101408201819052610160820181905261018082018190526101a082018390526101c082018390526101e0820183905261013180549182018155909252611fe5916000805160206158a083398151915201906010614bf4565b50604080516102008101825260008082526020820181905291810182905260608101829052600160808201819052600660a0830181905260c0830181905260e0830182905261010083018290526101208301819052610140830152610160820181905261018082018390526101a082018390526101c082018390526101e0820183905261013180549182018155909252612091916000805160206158a083398151915201906010614bf4565b50604080516102008101825260008082526020820181905291810182905260608101829052600160808201819052600360a0830181905260c0830181905260e0830181905261010083018190526101208301819052610140830152610160820181905261018082018390526101a082018390526101c082018390526101e082018390526101318054918201815590925261213d916000805160206158a083398151915201906010614bf4565b5060408051610200810182526000808252602082018190529181018290526060810182905260808101829052600160a0820181905260c0820181905260e08201819052600361010083015261012082018190526101408201819052610160820183905261018082018390526101a082018390526101c082018390526101e08201839052610131805491820181559092526121e9916000805160206158a083398151915201906010614bf4565b5060408051610200810182526000808252602082018190529181018290526060810182905260016080820181905260a0820181905260c0820181905260e08201819052610100820181905261012082018190526101408201819052610160820181905261018082018390526101a082018390526101c082018390526101e0820183905261013180549182018155909252612295916000805160206158a083398151915201906010614bf4565b5060408051610200810182526000808252602082018190529181018290526060810182905260046080820181905260a0820181905260c0820181905260e08201526006610100820181905261012082015260016101408201819052610160820181905261018082018390526101a082018390526101c082018390526101e0820183905261013180549182018155909252612341916000805160206158a083398151915201906010614bf4565b5060408051610200810182526000808252602082018190529181018290526060810182905260046080820181905260a0820181905260c0820181905260e08201526006610100820181905261012082015260016101408201819052610160820181905261018082018390526101a082018390526101c082018390526101e08201839052610131805491820181559092526123ed916000805160206158a083398151915201906010614bf4565b5060408051610200810182526000808252602082018190529181018290526060810182905260046080820181905260a0820181905260c0820181905260e08201819052610100820181905261012082015260016101408201819052610160820181905261018082018390526101a082018390526101c082018390526101e0820183905261013180549182018155909252612499916000805160206158a083398151915201906010614bf4565b5060408051610200810182526000808252602082018190529181018290526060810182905260046080820181905260a0820181905260c0820181905260e08201819052610100820181905261012082015260016101408201819052610160820181905261018082018390526101a082018390526101c082018390526101e0820183905261013180549182018155909252612545916000805160206158a083398151915201906010614bf4565b5060408051610200810182526000808252602082018190529181018290526060810182905260016080820181905260a08201819052600660c0830181905260e0830152600561010083018190526101208301819052610140830152610160820181905261018082018390526101a082018390526101c082018390526101e08201839052610131805491820181559092526125f1916000805160206158a083398151915201906010614bf4565b5060408051610200810182526000808252602082018190529181018290526060810182905260016080820181905260a08201819052600660c0830181905260e0830152600561010083018190526101208301819052610140830152610160820181905261018082018390526101a082018390526101c082018390526101e082018390526101318054918201815590925261269d916000805160206158a083398151915201906010614bf4565b5060408051610200810182526000808252602082018190529181018290526060810182905260016080820181905260a08201819052600460c0830181905260e0830152600561010083018190526101208301819052610140830152610160820181905261018082018390526101a082018390526101c082018390526101e0820183905261013180549182018155909252612749916000805160206158a083398151915201906010614bf4565b5060408051610200810182526000808252602082018190529181018290526060810182905260016080820181905260a08201819052600460c0830181905260e0830152600561010083018190526101208301819052610140830152610160820181905261018082018390526101a082018390526101c082018390526101e08201839052610131805491820181559092526127f5916000805160206158a083398151915201906010614bf4565b50604080516102008101825260008082526020820181905291810182905260608101829052600160808201819052600560a0830181905260c0830181905260e0830152600661010083018190526101208301526101408201819052610160820181905261018082018390526101a082018390526101c082018390526101e08201839052610131805491820181559092526128a1916000805160206158a083398151915201906010614bf4565b5060408051610200810182526000808252602082018190529181018290526060810182905260016080820181905260a08201819052600560c0830181905260e0830152600661010083018190526101208301526101408201819052610160820181905261018082018390526101a082018390526101c082018390526101e082018390526101318054918201815590925261294d916000805160206158a083398151915201906010614bf4565b5060408051610200810182526000808252602082018190529181018290526060810182905260016080820181905260a08201819052600560c0830181905260e0830152600461010083018190526101208301526101408201819052610160820181905261018082018390526101a082018390526101c082018390526101e08201839052610131805491820181559092526129f9916000805160206158a083398151915201906010614bf4565b5060408051610200810182526000808252602082018190529181018290526060810182905260016080820181905260a08201819052600560c0830181905260e0830152600461010083018190526101208301526101408201819052610160820181905261018082018390526101a082018390526101c082018390526101e0820183905261013180549182018155909252612aa5916000805160206158a083398151915201906010614bf4565b5060408051610200810182526000808252602082018190529181018290526060810182905260016080820181905260a08201819052600660c0830181905260e0830152600461010083018190526101208301819052610140830181905261016083015261018082018390526101a082018390526101c082018390526101e0820183905261013180549182018155909252612b51916000805160206158a083398151915201906010614bf4565b5060408051610200810182526000808252602082018190529181018290526060810182905260016080820181905260a08201819052600660c0830181905260e0830152600461010083018190526101208301819052610140830181905261016083015261018082018390526101a082018390526101c082018390526101e0820183905261013180549182018155909252612bfd916000805160206158a083398151915201906010614bf4565b5060408051610200810182526000808252602082018190529181018290526060810182905260016080820181905260a08201819052600460c0830181905260e0830181905261010083018190526101208301819052610140830181905261016083015261018082018390526101a082018390526101c082018390526101e0820183905261013180549182018155909252612ca9916000805160206158a083398151915201906010614bf4565b5060408051610200810182526000808252602082018190529181018290526060810182905260016080820181905260a08201819052600460c0830181905260e0830181905261010083018190526101208301819052610140830181905261016083015261018082018390526101a082018390526101c082018390526101e0820183905261013180549182018155909252612d55916000805160206158a083398151915201906010614bf4565b5060408051610200810182526000808252602082018190529181018290526060810182905260016080820181905260a0820181905260c0820181905260e08201819052600661010083018190526101208301526101408201819052610160820181905261018082018390526101a082018390526101c082018390526101e0820183905261013180549182018155909252612e01916000805160206158a083398151915201906010614bf4565b5060408051610200810182526000808252602082018190529181018290526060810182905260016080820181905260a0820181905260c0820181905260e08201819052600661010083018190526101208301526101408201819052610160820181905261018082018390526101a082018390526101c082018390526101e0820183905261013180549182018155909252612ead916000805160206158a083398151915201906010614bf4565b50604080516102008101825260008082526020820181905291810182905260608101829052600160808201819052600260a0830181905260c0830181905260e0830181905261010083018190526101208301819052610140830152610160820181905261018082018390526101a082018390526101c082018390526101e0820183905261013180549182018155909252612f59916000805160206158a083398151915201906010614bf4565b50604080516102008101825260008082526020820181905291810182905260608101829052600160808201819052600260a0830181905260c0830181905260e0830181905261010083018190526101208301819052610140830152610160820181905261018082018390526101a082018390526101c082018390526101e0820183905261013180549182018155909252613005916000805160206158a083398151915201906010614bf4565b5060408051610200810182526000808252602082018190529181018290526060810182905260016080820181905260a08201819052600660c0830181905260e0830152600261010083015261012082018190526101408201819052610160820181905261018082018390526101a082018390526101c082018390526101e08201839052610131805491820181559092526130b1916000805160206158a083398151915201906010614bf4565b5060408051610200810182526000808252602082018190529181018290526060810182905260016080820181905260a08201819052600660c0830181905260e0830152600261010083015261012082018190526101408201819052610160820181905261018082018390526101a082018390526101c082018390526101e082018390526101318054918201815590925261315d916000805160206158a083398151915201906010614bf4565b5060408051610200810182526000808252602082018190529181018290526060810182905260016080820181905260a0820181905260c08201819052600460e0830181905261010083015261012082018190526101408201819052610160820181905261018082018390526101a082018390526101c082018390526101e0820183905261013180549182018155909252613209916000805160206158a083398151915201906010614bf4565b5060408051610200810182526000808252602082018190529181018290526060810182905260016080820181905260a0820181905260c08201819052600460e0830152600661010083015261012082018190526101408201819052610160820181905261018082018390526101a082018390526101c082018390526101e08201839052610131805491820181559092526132b5916000805160206158a083398151915201906010614bf4565b5060408051610200810182526000808252602082018190529181018290526060810182905260808101829052600160a0820181905260c08201819052600660e0830181905261010083015261012082018190526101408201819052610160820183905261018082018390526101a082018390526101c082018390526101e0820183905261013180549182018155909252613361916000805160206158a083398151915201906010614bf4565b5060408051610200810182526000808252602082018190529181018290526060810182905260808101829052600160a0820181905260c0820181905260e08201819052610100820181905261012082018190526101408201819052610160820183905261018082018390526101a082018390526101c082018390526101e082018390526101318054918201815590925261340d916000805160206158a083398151915201906010614bf4565b5060408051610200810182526000808252602082018190529181018290526060810182905260808101829052600160a0820181905260c0820181905260e08201819052610100820181905261012082018190526101408201819052610160820183905261018082018390526101a082018390526101c082018390526101e08201839052610131805491820181559092526134b9916000805160206158a083398151915201906010614bf4565b506040805161020081018252600080825260208201819052918101829052606081018290526080810182905260a08101829052600160c0820181905260e08201819052610100820181905261012082018190526101408201839052610160820183905261018082018390526101a082018390526101c082018390526101e0820183905261013180549182018155909252613565916000805160206158a083398151915201906010614bf4565b506040805161020081018252600080825260208201819052918101829052606081018290526080810182905260a08101829052600160c0820181905260e08201819052610100820181905261012082018190526101408201839052610160820183905261018082018390526101a082018390526101c082018390526101e0820183905261013180549182018155909252613611916000805160206158a083398151915201906010614bf4565b506040805161020081018252600080825260208201819052918101829052606081018290526080810182905260a0810182905260c08101829052600160e08201819052610100820181905261012082018390526101408201839052610160820183905261018082018390526101a082018390526101c082018390526101e08201839052610131805491820181559092526136bd916000805160206158a083398151915201906010614bf4565b506040805161020081018252600080825260208201819052918101829052606081018290526080810182905260a0810182905260c08101829052600160e08201819052610100820181905261012082018390526101408201839052610160820183905261018082018390526101a082018390526101c082018390526101e0820183905261013180549182018155909252613769916000805160206158a083398151915201906010614bf4565b508015610caa576000805461ff00191690555050565b610130543410156137de5760405162461bcd60e51b815260206004820152602360248201527f50726963652068617320657870697265642c20706c656173652074727920616760448201526230b4b760e91b6064820152608401610608565b6137ea33826001614152565b60646101305460026137fc91906154f3565b6138069190615528565b610130556040805182815234602082015233917ff86cbedb5a8608ff23c1d58ffb721f8b4e1a8f793f510208d89d346b3b24ef289101610734565b610131828154811061385257600080fd5b90600052602060002001818154811061386a57600080fd5b9060005260206000209060209182820401919006915091509054906101000a900460ff1681565b6001600160a01b0385163314806138ad57506138ad8533610473565b61390b5760405162461bcd60e51b815260206004820152602960248201527f455243313135353a2063616c6c6572206973206e6f74206f776e6572206e6f7260448201526808185c1c1c9bdd995960ba1b6064820152608401610608565b6107cf8585858585614366565b6097546001600160a01b031633146139425760405162461bcd60e51b8152600401610608906153a4565b6001600160a01b0381166139a75760405162461bcd60e51b815260206004820152602660248201527f4f776e61626c653a206e6577206f776e657220697320746865207a65726f206160448201526564647265737360d01b6064820152608401610608565b6108b381613f99565b6097546001600160a01b031633146139da5760405162461bcd60e51b8152600401610608906153a4565b6139e5838383614152565b6040805183815260ff831660208201526001600160a01b038516917f11dab502fce81d031bd91a4e2af283ca6bfdfb67461321873e517285c5dbecf0910160405180910390a2505050565b600081815261012e6020908152604080832081516080810183528154815260018201546001600160a01b031693810193909352600281018054606095949384019190613a7b90615471565b80601f0160208091040260200160405190810160405280929190818152602001828054613aa790615471565b8015613af45780601f10613ac957610100808354040283529160200191613af4565b820191906000526020600020905b815481529060010190602001808311613ad757829003601f168201915b5050505050815260200160038201548152505090506000816000015111613b5d5760405162461bcd60e51b815260206004820152601760248201527f5468697320626c6f636b206973206e6f74206f776e65640000000000000000006044820152606401610608565b61013254815160608301516040808501519051633989e87b60e11b81526001600160a01b0390941693637313d0f693613b9c939092909160040161556b565b60006040518083038186803b158015613bb457600080fd5b505afa158015613bc8573d6000803e3d6000fd5b505050506040513d6000823e601f3d908101601f19168201604052613bf09190810190615322565b9392505050565b8151835114613c595760405162461bcd60e51b815260206004820152602860248201527f455243313135353a2069647320616e6420616d6f756e7473206c656e677468206044820152670dad2e6dac2e8c6d60c31b6064820152608401610608565b6001600160a01b038416613c7f5760405162461bcd60e51b81526004016106089061558a565b3360005b8451811015613d69576000858281518110613ca057613ca06154ac565b602002602001015190506000858381518110613cbe57613cbe6154ac565b60209081029190910181015160008481526065835260408082206001600160a01b038e168352909352919091205490915081811015613d0f5760405162461bcd60e51b8152600401610608906155cf565b60008381526065602090815260408083206001600160a01b038e8116855292528083208585039055908b16825281208054849290613d4e908490615553565b9250508190555050505080613d62906154d8565b9050613c83565b50846001600160a01b0316866001600160a01b0316826001600160a01b03167f4a39dc06d4c0dbc64b70af90fd698a233a518aa5d07e595d983b8c0526c8f7fb8787604051613db9929190615619565b60405180910390a4613dcf818787878787614490565b505050505050565b6097546001600160a01b031633146108b35760405162461bcd60e51b8152600401610608906153a4565b7f4910fdfa16fed3260ed0e7147f7cc6da11a60208b5b9406d12a635614ffd91435460ff1615613e3957613e34836145fb565b505050565b826001600160a01b03166352d1902d6040518163ffffffff1660e01b815260040160206040518083038186803b158015613e7257600080fd5b505afa925050508015613ea2575060408051601f3d908101601f19168201909252613e9f9181019061563e565b60015b613f055760405162461bcd60e51b815260206004820152602e60248201527f45524331393637557067726164653a206e657720696d706c656d656e7461746960448201526d6f6e206973206e6f74205555505360901b6064820152608401610608565b6000805160206158808339815191528114613f745760405162461bcd60e51b815260206004820152602960248201527f45524331393637557067726164653a20756e737570706f727465642070726f786044820152681a58589b195555525160ba1b6064820152608401610608565b50613e34838383614697565b600081613f8f846127106154f3565b613bf09190615553565b609780546001600160a01b038381166001600160a01b0319831681179093556040519116919082907f8be0079c531659141344cd1fd0a4f28419497f9722a3daafe3b4186f6b6457e090600090a35050565b816001600160a01b0316836001600160a01b0316141561405f5760405162461bcd60e51b815260206004820152602960248201527f455243313135353a2073657474696e6720617070726f76616c20737461747573604482015268103337b91039b2b63360b91b6064820152608401610608565b6001600160a01b03838116600081815260666020908152604080832094871680845294825291829020805460ff191686151590811790915591519182527f17307eab39ab6107e8899845ad3d59bd9653f200f220920489ca2b5937696c31910160405180910390a3505050565b600054610100900460ff166140f35760405162461bcd60e51b815260040161060890615657565b6108b3816146bc565b600054610100900460ff166141235760405162461bcd60e51b815260040161060890615657565b6111b26146ec565b600054610100900460ff166111b25760405162461bcd60e51b815260040161060890615657565b600082815261012e60205260409020600101546001600160a01b0316156141bb5760405162461bcd60e51b815260206004820152601b60248201527f5468697320626c6f636b20697320616c7265616479206f776e656400000000006044820152606401610608565b6141c5828261471c565b6142115760405162461bcd60e51b815260206004820152601e60248201527f5468697320626c6f636b206973206e6f74206f662074686973207479706500006044820152606401610608565b61422061012d80546001019055565b60006040518060800160405280848152602001856001600160a01b0316815260200160405180602001604052806000815250815260200161426161012d5490565b9052600084815261012e602090815260409182902083518155838201516001820180546001600160a01b0319166001600160a01b0390921691909117905591830151805193945084936142ba9260028501920190614b70565b50606091909101516003909101556040516001600160f81b031960f884901b16602082015261430190859085906001906021016040516020818303038152906040526147a2565b60ff82166001141561436057610133805490600061431e836154d8565b91905055507fdbc38d09e60916f3bf282de216054bdaaaa8c1da1c4a5e3c9661163cbe126f626101335460405161435791815260200190565b60405180910390a15b50505050565b6001600160a01b03841661438c5760405162461bcd60e51b81526004016106089061558a565b336143a581878761439c886148a5565b6107cf886148a5565b60008481526065602090815260408083206001600160a01b038a168452909152902054838110156143e85760405162461bcd60e51b8152600401610608906155cf565b60008581526065602090815260408083206001600160a01b038b8116855292528083208785039055908816825281208054869290614427908490615553565b909155505060408051868152602081018690526001600160a01b03808916928a821692918616917fc3d58168c5ae7397731d063d5bbf3d657854427343f4c083240f7aacaa2d0f62910160405180910390a46144878288888888886148f0565b50505050505050565b6001600160a01b0384163b15613dcf5760405163bc197c8160e01b81526001600160a01b0385169063bc197c81906144d490899089908890889088906004016156a2565b602060405180830381600087803b1580156144ee57600080fd5b505af192505050801561451e575060408051601f3d908101601f1916820190925261451b91810190615700565b60015b6145cb5761452a61571d565b806308c379a01415614564575061453f615738565b8061454a5750614566565b8060405162461bcd60e51b81526004016106089190614d17565b505b60405162461bcd60e51b815260206004820152603460248201527f455243313135353a207472616e7366657220746f206e6f6e20455243313135356044820152732932b1b2b4bb32b91034b6b83632b6b2b73a32b960611b6064820152608401610608565b6001600160e01b0319811663bc197c8160e01b146144875760405162461bcd60e51b8152600401610608906157c2565b6001600160a01b0381163b6146685760405162461bcd60e51b815260206004820152602d60248201527f455243313936373a206e657720696d706c656d656e746174696f6e206973206e60448201526c1bdd08184818dbdb9d1c9858dd609a1b6064820152608401610608565b60008051602061588083398151915280546001600160a01b0319166001600160a01b0392909216919091179055565b6146a0836149ba565b6000825111806146ad5750805b15613e345761436083836149fa565b600054610100900460ff166146e35760405162461bcd60e51b815260040161060890615657565b6108b381614aee565b600054610100900460ff166147135760405162461bcd60e51b815260040161060890615657565b6111b233613f99565b600080600061472a85614b01565b909250905060ff841661013161474160018461553c565b81548110614751576147516154ac565b90600052602060002001600184614768919061553c565b81548110614778576147786154ac565b600091825260209182902091810490910154601f9091166101000a900460ff161495945050505050565b6001600160a01b0384166148025760405162461bcd60e51b815260206004820152602160248201527f455243313135353a206d696e7420746f20746865207a65726f206164647265736044820152607360f81b6064820152608401610608565b336148138160008761439c886148a5565b60008481526065602090815260408083206001600160a01b038916845290915281208054859290614845908490615553565b909155505060408051858152602081018590526001600160a01b0380881692600092918516917fc3d58168c5ae7397731d063d5bbf3d657854427343f4c083240f7aacaa2d0f62910160405180910390a46107cf816000878787876148f0565b604080516001808252818301909252606091600091906020808301908036833701905050905082816000815181106148df576148df6154ac565b602090810291909101015292915050565b6001600160a01b0384163b15613dcf5760405163f23a6e6160e01b81526001600160a01b0385169063f23a6e6190614934908990899088908890889060040161580a565b602060405180830381600087803b15801561494e57600080fd5b505af192505050801561497e575060408051601f3d908101601f1916820190925261497b91810190615700565b60015b61498a5761452a61571d565b6001600160e01b0319811663f23a6e6160e01b146144875760405162461bcd60e51b8152600401610608906157c2565b6149c3816145fb565b6040516001600160a01b038216907fbc7cd75a20ee27fd9adebab32041f755214dbc6bffa90cc0225b39da2e5c2d3b90600090a250565b60606001600160a01b0383163b614a625760405162461bcd60e51b815260206004820152602660248201527f416464726573733a2064656c65676174652063616c6c20746f206e6f6e2d636f6044820152651b9d1c9858dd60d21b6064820152608401610608565b600080846001600160a01b031684604051614a7d919061584f565b600060405180830381855af49150503d8060008114614ab8576040519150601f19603f3d011682016040523d82523d6000602084013e614abd565b606091505b5091509150614ae582826040518060600160405280602781526020016158c060279139614b37565b95945050505050565b8051610caa906067906020840190614b70565b60008080614b116127108561586b565b90506000612710614b22838761553c565b614b2c9190615528565b959194509092505050565b60608315614b46575081613bf0565b825115614b565782518084602001fd5b8160405162461bcd60e51b81526004016106089190614d17565b828054614b7c90615471565b90600052602060002090601f016020900481019282614b9e5760008555614be4565b82601f10614bb757805160ff1916838001178555614be4565b82800160010185558215614be4579182015b82811115614be4578251825591602001919060010190614bc9565b50614bf0929150614c91565b5090565b82805482825590600052602060002090601f01602090048101928215614be45791602002820160005b83821115614c5b57835183826101000a81548160ff021916908360ff1602179055509260200192600101602081600001049283019260010302614c1d565b8015614c885782816101000a81549060ff0219169055600101602081600001049283019260010302614c5b565b5050614bf09291505b5b80821115614bf05760008155600101614c92565b600060208284031215614cb857600080fd5b5035919050565b60005b83811015614cda578181015183820152602001614cc2565b838111156143605750506000910152565b60008151808452614d03816020860160208601614cbf565b601f01601f19169290920160200192915050565b602081526000613bf06020830184614ceb565b6001600160a01b03811681146108b357600080fd5b60008060408385031215614d5257600080fd5b8235614d5d81614d2a565b946020939093013593505050565b6001600160e01b0319811681146108b357600080fd5b600060208284031215614d9357600080fd5b8135613bf081614d6b565b634e487b7160e01b600052604160045260246000fd5b601f8201601f1916810167ffffffffffffffff81118282101715614dda57614dda614d9e565b6040525050565b600067ffffffffffffffff821115614dfb57614dfb614d9e565b5060051b60200190565b600082601f830112614e1657600080fd5b81356020614e2382614de1565b604051614e308282614db4565b83815260059390931b8501820192828101915086841115614e5057600080fd5b8286015b84811015614e6b5780358352918301918301614e54565b509695505050505050565b600067ffffffffffffffff821115614e9057614e90614d9e565b50601f01601f191660200190565b6000614ea983614e76565b604051614eb68282614db4565b809250848152858585011115614ecb57600080fd5b8484602083013760006020868301015250509392505050565b600082601f830112614ef557600080fd5b613bf083833560208501614e9e565b600080600080600060a08688031215614f1c57600080fd5b8535614f2781614d2a565b94506020860135614f3781614d2a565b9350604086013567ffffffffffffffff80821115614f5457600080fd5b614f6089838a01614e05565b94506060880135915080821115614f7657600080fd5b614f8289838a01614e05565b93506080880135915080821115614f9857600080fd5b50614fa588828901614ee4565b9150509295509295909350565b600060208284031215614fc457600080fd5b8135613bf081614d2a565b60008060408385031215614fe257600080fd5b82359150602083013567ffffffffffffffff81111561500057600080fd5b8301601f8101851361501157600080fd5b61502085823560208401614e9e565b9150509250929050565b6000806040838503121561503d57600080fd5b823567ffffffffffffffff8082111561505557600080fd5b818501915085601f83011261506957600080fd5b8135602061507682614de1565b6040516150838282614db4565b83815260059390931b85018201928281019150898411156150a357600080fd5b948201945b838610156150ca5785356150bb81614d2a565b825294820194908201906150a8565b965050860135925050808211156150e057600080fd5b5061502085828601614e05565b600081518084526020808501945080840160005b8381101561511d57815187529582019590820190600101615101565b509495945050505050565b602081526000613bf060208301846150ed565b6000806040838503121561514e57600080fd5b823561515981614d2a565b9150602083013567ffffffffffffffff81111561517557600080fd5b61502085828601614ee4565b803560ff8116811461519257600080fd5b919050565b6000602082840312156151a957600080fd5b613bf082615181565b8481526001600160a01b03841660208201526080604082018190526000906151dc90830185614ceb565b905082606083015295945050505050565b6000806040838503121561520057600080fd5b823561520b81614d2a565b91506020830135801515811461522057600080fd5b809150509250929050565b6000806040838503121561523e57600080fd5b50508035926020909101359150565b6000806040838503121561526057600080fd5b823561526b81614d2a565b9150602083013561522081614d2a565b600080600080600060a0868803121561529357600080fd5b853561529e81614d2a565b945060208601356152ae81614d2a565b93506040860135925060608601359150608086013567ffffffffffffffff8111156152d857600080fd5b614fa588828901614ee4565b6000806000606084860312156152f957600080fd5b833561530481614d2a565b92506020840135915061531960408501615181565b90509250925092565b60006020828403121561533457600080fd5b815167ffffffffffffffff81111561534b57600080fd5b8201601f8101841361535c57600080fd5b805161536781614e76565b6040516153748282614db4565b82815286602084860101111561538957600080fd5b61539a836020830160208701614cbf565b9695505050505050565b6020808252818101527f4f776e61626c653a2063616c6c6572206973206e6f7420746865206f776e6572604082015260600190565b6020808252602c908201527f46756e6374696f6e206d7573742062652063616c6c6564207468726f7567682060408201526b19195b1959d85d1958d85b1b60a21b606082015260800190565b6020808252602c908201527f46756e6374696f6e206d7573742062652063616c6c6564207468726f7567682060408201526b6163746976652070726f787960a01b606082015260800190565b600181811c9082168061548557607f821691505b602082108114156154a657634e487b7160e01b600052602260045260246000fd5b50919050565b634e487b7160e01b600052603260045260246000fd5b634e487b7160e01b600052601160045260246000fd5b60006000198214156154ec576154ec6154c2565b5060010190565b600081600019048311821515161561550d5761550d6154c2565b500290565b634e487b7160e01b600052601260045260246000fd5b60008261553757615537615512565b500490565b60008282101561554e5761554e6154c2565b500390565b60008219821115615566576155666154c2565b500190565b838152826020820152606060408201526000614ae56060830184614ceb565b60208082526025908201527f455243313135353a207472616e7366657220746f20746865207a65726f206164604082015264647265737360d81b606082015260800190565b6020808252602a908201527f455243313135353a20696e73756666696369656e742062616c616e636520666f60408201526939103a3930b739b332b960b11b606082015260800190565b60408152600061562c60408301856150ed565b8281036020840152614ae581856150ed565b60006020828403121561565057600080fd5b5051919050565b6020808252602b908201527f496e697469616c697a61626c653a20636f6e7472616374206973206e6f74206960408201526a6e697469616c697a696e6760a81b606082015260800190565b6001600160a01b0386811682528516602082015260a0604082018190526000906156ce908301866150ed565b82810360608401526156e081866150ed565b905082810360808401526156f48185614ceb565b98975050505050505050565b60006020828403121561571257600080fd5b8151613bf081614d6b565b600060033d1115610d5f5760046000803e5060005160e01c90565b600060443d10156157465790565b6040516003193d81016004833e81513d67ffffffffffffffff816024840111818411171561577657505050505090565b828501915081518181111561578e5750505050505090565b843d87010160208285010111156157a85750505050505090565b6157b760208286010187614db4565b509095945050505050565b60208082526028908201527f455243313135353a204552433131353552656365697665722072656a656374656040820152676420746f6b656e7360c01b606082015260800190565b6001600160a01b03868116825285166020820152604081018490526060810183905260a06080820181905260009061584490830184614ceb565b979650505050505050565b60008251615861818460208701614cbf565b9190910192915050565b60008261587a5761587a615512565b50069056fe360894a13ba1a3210667c828492db98dca3e2076cc3735a920a3ca505d382bbcbd987ad6ccdb7c7567f7335ea839f95dc944431abcf935b6924f70215963db73416464726573733a206c6f772d6c6576656c2064656c65676174652063616c6c206661696c6564a26469706673582212207685b1041a4e26d22db46b9c8ef96062ae685dc4c61ea47ecccf5f8fd2fb75b364736f6c63430008090033",
  "immutableReferences": {
    "617": [
      {
        "length": 32,
        "start": 2017
      },
      {
        "length": 32,
        "start": 2081
      },
      {
        "length": 32,
        "start": 3048
      },
      {
        "length": 32,
        "start": 3112
      },
      {
        "length": 32,
        "start": 3259
      }
    ]
  },
  "source": "// SPDX-License-Identifier: MIT\npragma solidity ^0.8.9;\n\nimport \"@openzeppelin/contracts-upgradeable/token/ERC1155/ERC1155Upgradeable.sol\";\nimport \"@openzeppelin/contracts-upgradeable/access/OwnableUpgradeable.sol\";\nimport \"@openzeppelin/contracts-upgradeable/proxy/utils/Initializable.sol\";\nimport \"@openzeppelin/contracts-upgradeable/proxy/utils/UUPSUpgradeable.sol\";\nimport \"@openzeppelin/contracts-upgradeable/token/ERC1155/extensions/ERC1155SupplyUpgradeable.sol\";\nimport \"@openzeppelin/contracts-upgradeable/utils/CountersUpgradeable.sol\";\nimport {IMetadata} from \"./Web3SwordMetadata.sol\";\n\n// [\n// [0,0,0,0,0,0,0,1,1,0,0,0,0,0,0,0],\n// [0,0,0,0,0,0,0,1,1,0,0,0,0,0,0,0],\n// [0,0,0,0,0,0,1,1,1,1,0,0,0,0,0,0],\n// [0,0,0,0,0,0,1,1,1,1,0,0,0,0,0,0],\n// [0,0,0,0,0,0,0,1,1,0,0,0,0,0,0,0],\n// [0,0,0,0,0,0,0,1,1,0,0,0,0,0,0,0],\n// [0,0,0,0,0,0,0,1,1,0,0,0,0,0,0,0],\n// [0,0,0,0,0,0,0,1,1,0,0,0,0,0,0,0],\n// [0,0,0,0,0,0,0,1,1,0,0,0,0,0,0,0],\n// [0,0,0,0,0,0,0,1,1,0,0,0,0,0,0,0],\n// [0,0,0,0,0,0,0,1,1,0,0,0,0,0,0,0],\n// [0,0,0,0,0,0,0,1,1,0,0,0,0,0,0,0],\n// [0,0,0,0,0,0,0,1,1,0,0,0,0,0,0,0],\n// [0,0,0,0,0,0,0,1,1,0,0,0,0,0,0,0],\n// [1,1,1,1,1,1,1,1,1,1,1,1,1,1,1,1],\n// [1,1,1,1,1,1,1,1,1,1,1,1,1,1,1,1],\n// [0,1,1,1,1,1,1,1,1,1,1,1,1,1,1,0],\n// [0,0,0,1,1,1,1,1,1,1,1,1,1,0,0,0],\n// [0,0,0,1,1,1,1,1,1,1,1,1,1,0,0,0],\n// [0,0,0,0,1,1,1,1,1,1,1,1,0,0,0,0],\n// [0,0,0,0,1,1,1,1,1,1,1,1,0,0,0,0],\n// [0,0,0,0,0,1,1,1,1,1,1,0,0,0,0,0],\n// [0,0,0,0,1,1,1,1,1,1,1,1,0,0,0,0],\n// [0,0,0,0,1,1,1,1,1,1,1,1,0,0,0,0],\n// [0,0,0,0,1,1,1,1,1,1,1,1,0,0,0,0],\n// [0,0,0,0,1,1,1,1,1,1,1,1,0,0,0,0],\n// [0,0,0,0,1,1,1,1,1,1,1,1,0,0,0,0],\n// [0,0,0,0,1,1,1,1,1,1,1,1,0,0,0,0],\n// [0,0,0,0,1,1,1,1,1,1,1,1,0,0,0,0],\n// [0,0,0,0,1,1,1,1,1,1,1,1,0,0,0,0],\n// [0,0,0,0,1,1,1,1,1,1,1,1,0,0,0,0],\n// [0,0,0,0,1,1,1,1,1,1,1,1,0,0,0,0],\n// [0,0,0,0,1,1,1,1,1,1,1,1,0,0,0,0],\n// [0,0,0,0,1,1,1,1,1,1,1,1,0,0,0,0],\n// [0,0,0,0,1,1,1,1,1,1,1,1,0,0,0,0],\n// [0,0,0,0,1,1,1,1,1,1,1,1,0,0,0,0],\n// [0,0,0,0,1,1,1,1,1,1,1,1,0,0,0,0],\n// [0,0,0,0,1,1,1,1,1,1,1,1,0,0,0,0],\n// [0,0,0,0,1,1,1,1,1,1,1,1,0,0,0,0],\n// [0,0,0,0,1,1,1,1,1,1,1,1,0,0,0,0],\n// [0,0,0,0,1,1,1,1,1,1,1,1,0,0,0,0],\n// [0,0,0,0,1,1,1,1,1,1,1,1,0,0,0,0],\n// [0,0,0,0,1,1,1,1,1,1,1,1,0,0,0,0],\n// [0,0,0,0,1,1,1,1,1,1,1,1,0,0,0,0],\n// [0,0,0,0,1,1,1,1,1,1,1,1,0,0,0,0],\n// [0,0,0,0,1,1,1,1,1,1,1,1,0,0,0,0],\n// [0,0,0,0,1,1,1,1,1,1,1,1,0,0,0,0],\n// [0,0,0,0,0,1,1,1,1,1,1,0,0,0,0,0],\n// [0,0,0,0,0,1,1,1,1,1,1,0,0,0,0,0],\n// [0,0,0,0,0,1,1,1,1,1,1,0,0,0,0,0],\n// [0,0,0,0,0,0,1,1,1,1,0,0,0,0,0,0],\n// [0,0,0,0,0,0,1,1,1,1,0,0,0,0,0,0],\n// [0,0,0,0,0,0,0,1,1,0,0,0,0,0,0,0],\n// [0,0,0,0,0,0,0,1,1,0,0,0,0,0,0,0]]\ncontract Web3Sword is\n    Initializable,\n    ERC1155Upgradeable,\n    OwnableUpgradeable,\n    UUPSUpgradeable\n{\n    using CountersUpgradeable for CountersUpgradeable.Counter;\n    CountersUpgradeable.Counter private _tokenIdCounter;\n\n    struct SwordBlock {\n        uint256 tokenId;\n        address ownerAddress;\n        string imgURL;\n        uint256 number;\n    }\n\n    mapping(uint256 => SwordBlock) public blockById;\n\n    // mint = 1\n    // marketing = 2\n    // lucky = 3\n    // thirdparty = 4\n    // airdrop = 5\n    // twitter = 6\n    uint8 private constant mint = 1;\n    uint8 private constant marketing = 2;\n    uint8 private constant lucky = 3;\n    uint8 private constant thirdparty = 4;\n    uint8 private constant airdrop = 5;\n    uint8 private constant tweets = 6;\n\n    bool fullyMint;\n\n    uint256 public currentPrice;\n\n    uint8[][] public swordMatrix;\n\n    IMetadata private metadataGenerator;\n\n    event BuySuccess(address indexed buyer, uint256 tokenId, uint256 value);\n    event SocialClaimSuccess(address indexed claimer, uint256 tokenId, uint8 t);\n    event Withdrawal(address indexed, uint256 value);\n    event ResetPrice(uint256 newPrice);\n    event SelledCountUpdate(uint256 value);\n\n    uint256 public selledCount;\n\n    function initialize(IMetadata _metadataGenertaor) public initializer {\n        __ERC1155_init(\"\");\n        __Ownable_init();\n        __UUPSUpgradeable_init();\n        fullyMint = false;\n        selledCount = 0;\n        metadataGenerator = _metadataGenertaor;\n        currentPrice = 15 * 10**16;\n        swordMatrix.push([0, 0, 0, 0, 0, 0, 0, 1, 1, 0, 0, 0, 0, 0, 0, 0]);\n        swordMatrix.push([0, 0, 0, 0, 0, 0, 0, 1, 1, 0, 0, 0, 0, 0, 0, 0]);\n        swordMatrix.push([0, 0, 0, 0, 0, 0, 1, 1, 1, 1, 0, 0, 0, 0, 0, 0]);\n        swordMatrix.push([0, 0, 0, 0, 0, 0, 1, 1, 1, 1, 0, 0, 0, 0, 0, 0]);\n        swordMatrix.push([0, 0, 0, 0, 0, 0, 0, 1, 1, 0, 0, 0, 0, 0, 0, 0]);\n        swordMatrix.push([0, 0, 0, 0, 0, 0, 0, 1, 1, 0, 0, 0, 0, 0, 0, 0]);\n        swordMatrix.push([0, 0, 0, 0, 0, 0, 0, 1, 1, 0, 0, 0, 0, 0, 0, 0]);\n        swordMatrix.push([0, 0, 0, 0, 0, 0, 0, 1, 1, 0, 0, 0, 0, 0, 0, 0]);\n        swordMatrix.push([0, 0, 0, 0, 0, 0, 0, 1, 1, 0, 0, 0, 0, 0, 0, 0]);\n        swordMatrix.push([0, 0, 0, 0, 0, 0, 0, 1, 1, 0, 0, 0, 0, 0, 0, 0]);\n        swordMatrix.push([0, 0, 0, 0, 0, 0, 0, 1, 1, 0, 0, 0, 0, 0, 0, 0]);\n        swordMatrix.push([0, 0, 0, 0, 0, 0, 0, 1, 1, 0, 0, 0, 0, 0, 0, 0]);\n        swordMatrix.push([0, 0, 0, 0, 0, 0, 0, 6, 6, 0, 0, 0, 0, 0, 0, 0]);\n        swordMatrix.push([0, 0, 0, 0, 0, 0, 0, 6, 6, 0, 0, 0, 0, 0, 0, 0]);\n        swordMatrix.push([1, 1, 1, 1, 1, 1, 1, 1, 1, 1, 1, 1, 1, 1, 1, 1]);\n        swordMatrix.push([1, 1, 1, 1, 1, 1, 1, 1, 1, 1, 1, 1, 1, 1, 1, 1]);\n        swordMatrix.push([0, 1, 1, 1, 1, 4, 4, 4, 4, 4, 4, 1, 1, 1, 1, 0]);\n        swordMatrix.push([0, 0, 0, 1, 1, 4, 4, 4, 4, 4, 4, 1, 1, 0, 0, 0]);\n        swordMatrix.push([0, 0, 0, 1, 1, 1, 1, 1, 1, 1, 1, 1, 1, 0, 0, 0]);\n        swordMatrix.push([0, 0, 0, 0, 1, 6, 6, 1, 1, 6, 6, 1, 0, 0, 0, 0]);\n        swordMatrix.push([0, 0, 0, 0, 1, 3, 3, 3, 3, 3, 3, 1, 0, 0, 0, 0]);\n        swordMatrix.push([0, 0, 0, 0, 0, 1, 1, 1, 3, 1, 1, 0, 0, 0, 0, 0]);\n        swordMatrix.push([0, 0, 0, 0, 1, 1, 1, 1, 1, 1, 1, 1, 0, 0, 0, 0]);\n        swordMatrix.push([0, 0, 0, 0, 4, 4, 4, 4, 6, 6, 1, 1, 0, 0, 0, 0]);\n        swordMatrix.push([0, 0, 0, 0, 4, 4, 4, 4, 6, 6, 1, 1, 0, 0, 0, 0]);\n        swordMatrix.push([0, 0, 0, 0, 4, 4, 4, 4, 4, 4, 1, 1, 0, 0, 0, 0]);\n        swordMatrix.push([0, 0, 0, 0, 4, 4, 4, 4, 4, 4, 1, 1, 0, 0, 0, 0]);\n        swordMatrix.push([0, 0, 0, 0, 1, 1, 6, 6, 5, 5, 5, 1, 0, 0, 0, 0]);\n        swordMatrix.push([0, 0, 0, 0, 1, 1, 6, 6, 5, 5, 5, 1, 0, 0, 0, 0]);\n        swordMatrix.push([0, 0, 0, 0, 1, 1, 4, 4, 5, 5, 5, 1, 0, 0, 0, 0]);\n        swordMatrix.push([0, 0, 0, 0, 1, 1, 4, 4, 5, 5, 5, 1, 0, 0, 0, 0]);\n        swordMatrix.push([0, 0, 0, 0, 1, 5, 5, 5, 6, 6, 1, 1, 0, 0, 0, 0]);\n        swordMatrix.push([0, 0, 0, 0, 1, 1, 5, 5, 6, 6, 1, 1, 0, 0, 0, 0]);\n        swordMatrix.push([0, 0, 0, 0, 1, 1, 5, 5, 4, 4, 1, 1, 0, 0, 0, 0]);\n        swordMatrix.push([0, 0, 0, 0, 1, 1, 5, 5, 4, 4, 1, 1, 0, 0, 0, 0]);\n        swordMatrix.push([0, 0, 0, 0, 1, 1, 6, 6, 4, 4, 4, 4, 0, 0, 0, 0]);\n        swordMatrix.push([0, 0, 0, 0, 1, 1, 6, 6, 4, 4, 4, 4, 0, 0, 0, 0]);\n        swordMatrix.push([0, 0, 0, 0, 1, 1, 4, 4, 4, 4, 4, 4, 0, 0, 0, 0]);\n        swordMatrix.push([0, 0, 0, 0, 1, 1, 4, 4, 4, 4, 4, 4, 0, 0, 0, 0]);\n        swordMatrix.push([0, 0, 0, 0, 1, 1, 1, 1, 6, 6, 1, 1, 0, 0, 0, 0]);\n        swordMatrix.push([0, 0, 0, 0, 1, 1, 1, 1, 6, 6, 1, 1, 0, 0, 0, 0]);\n        swordMatrix.push([0, 0, 0, 0, 1, 2, 2, 2, 2, 2, 2, 1, 0, 0, 0, 0]);\n        swordMatrix.push([0, 0, 0, 0, 1, 2, 2, 2, 2, 2, 2, 1, 0, 0, 0, 0]);\n        swordMatrix.push([0, 0, 0, 0, 1, 1, 6, 6, 2, 1, 1, 1, 0, 0, 0, 0]);\n        swordMatrix.push([0, 0, 0, 0, 1, 1, 6, 6, 2, 1, 1, 1, 0, 0, 0, 0]);\n        swordMatrix.push([0, 0, 0, 0, 1, 1, 1, 4, 4, 1, 1, 1, 0, 0, 0, 0]);\n        swordMatrix.push([0, 0, 0, 0, 1, 1, 1, 4, 6, 1, 1, 1, 0, 0, 0, 0]);\n        swordMatrix.push([0, 0, 0, 0, 0, 1, 1, 6, 6, 1, 1, 0, 0, 0, 0, 0]);\n        swordMatrix.push([0, 0, 0, 0, 0, 1, 1, 1, 1, 1, 1, 0, 0, 0, 0, 0]);\n        swordMatrix.push([0, 0, 0, 0, 0, 1, 1, 1, 1, 1, 1, 0, 0, 0, 0, 0]);\n        swordMatrix.push([0, 0, 0, 0, 0, 0, 1, 1, 1, 1, 0, 0, 0, 0, 0, 0]);\n        swordMatrix.push([0, 0, 0, 0, 0, 0, 1, 1, 1, 1, 0, 0, 0, 0, 0, 0]);\n        swordMatrix.push([0, 0, 0, 0, 0, 0, 0, 1, 1, 0, 0, 0, 0, 0, 0, 0]);\n        swordMatrix.push([0, 0, 0, 0, 0, 0, 0, 1, 1, 0, 0, 0, 0, 0, 0, 0]);\n    }\n\n    function buy(uint256 tokenId) public payable {\n        require(msg.value >= currentPrice, \"Price has expired, please try again\");\n        _mint(_msgSender(), tokenId, mint);\n        currentPrice = (currentPrice * 2) / 100;\n        emit BuySuccess(_msgSender(), tokenId, msg.value);\n    }\n\n    // reset current price\n    function resetCurrentPrice(uint256 price) public onlyOwner {\n        currentPrice = price;\n        emit ResetPrice(currentPrice);\n    }\n\n    // claim\n    function socialClaim(\n        address to,\n        uint256 tokenId,\n        uint8 t\n    ) public onlyOwner {\n        _mint(to, tokenId, t);\n        emit SocialClaimSuccess(to, tokenId, t);\n    }\n\n    // Get the number of tokenId that social can claim\n    // Airdrop: 9-100, step: 4\n    // Tweets: 0-99, step: 3\n    // Lucky: 1-90, step: 12\n    function socialCanClaimTokenIds(uint8 t)\n        public\n        view\n        returns (uint256[] memory)\n    {\n        uint256 start = 0;\n        uint256 end = 0;\n        uint256 step = 0;\n        uint256 totalToSell = 210;\n        if (t == airdrop) {\n            start = (totalToSell * 9) / 100;\n            end = (totalToSell * 100) / 100;\n            step = (totalToSell * 4) / 100;\n        } else if (t == tweets) {\n            start = 0;\n            end = (totalToSell * 99) / 100;\n            step = (totalToSell * 3) / 100;\n        } else if (t == lucky) {\n            start = (totalToSell * 1) / 100;\n            end = (totalToSell * 90) / 100;\n            step = (totalToSell * 12) / 100;\n        }\n        uint256 unlockCount = (selledCount - start) / step;\n        uint256 resultIndex = 0;\n        uint256[] memory result = new uint256[](unlockCount);\n        if (selledCount < start) {\n            return result;\n        }\n        if (unlockCount == 0) {\n            return result;\n        }\n        for (uint256 i = 0; i < swordMatrix.length; i++) {\n            uint8[] memory row = swordMatrix[i];\n            for (uint256 j = 0; j < row.length; j++) {\n                if (swordMatrix[i][j] != t) {\n                    continue;\n                }\n                if (unlockCount == 0) {\n                    return result;\n                }\n                uint256 tokenId = _computeTokenId(j + 1, i + 1);\n                if (blockById[tokenId].ownerAddress != address(0)) {\n                    unlockCount = unlockCount - 1;\n                    continue;\n                }\n                result[resultIndex] = tokenId;\n                resultIndex++;\n                unlockCount = unlockCount - 1;\n            }\n        }\n        return result;\n    }\n\n    function _checktokenId(uint256 tokenId, uint8 t)\n        internal\n        view\n        returns (bool)\n    {\n        (uint256 x, uint256 y) = _getXYPointFromTokenId(tokenId);\n        return swordMatrix[y - 1][x - 1] == t;\n    }\n\n    function _getXYPointFromTokenId(uint256 tokenId)\n        internal\n        pure\n        returns (uint256, uint256)\n    {\n        uint256 y = tokenId % 10000;\n        uint256 x = (tokenId - y) / 10000;\n        return (x, y);\n    }\n\n    function _computeTokenId(uint256 x, uint256 y)\n        internal\n        pure\n        returns (uint256)\n    {\n        return x * 10000 + y;\n    }\n\n    function _mint(\n        address to,\n        uint256 id,\n        uint8 t\n    ) internal {\n        require(\n            blockById[id].ownerAddress == address(0),\n            \"This block is already owned\"\n        );\n        require(_checktokenId(id, t), \"This block is not of this type\");\n        _tokenIdCounter.increment();\n        SwordBlock memory b = SwordBlock(id, to, \"\", _tokenIdCounter.current());\n        blockById[id] = b;\n        ERC1155Upgradeable._mint(to, id, 1, abi.encodePacked(t));\n\n        if (t == mint) {\n            selledCount++;\n            emit SelledCountUpdate(selledCount);\n        }\n    }\n\n    // Upload new imguri\n    function upload(uint256 tokenId, string memory _uri) public {\n        SwordBlock memory b = blockById[tokenId];\n        require(\n            b.ownerAddress == _msgSender(),\n            \"You are not the owner of this block\"\n        );\n        b.imgURL = _uri;\n        blockById[tokenId] = b;\n        string memory metadataURI = generateMetadataURI(tokenId);\n        emit URI(metadataURI, tokenId);\n    }\n\n    // Extract eth and send events so that everyone can know\n    function withdraw(uint256 value) public onlyOwner {\n        require(value > 0);\n        require(value <= address(this).balance);\n        payable(msg.sender).transfer(value);\n        emit Withdrawal(msg.sender, value);\n    }\n\n    function name(uint256) public view returns (string memory) {\n        return metadataGenerator.name();\n    }\n\n    function generateMetadataURI(uint256 id)\n        internal\n        view\n        returns (string memory)\n    {\n        SwordBlock memory b = blockById[id];\n        require(b.tokenId > 0, \"This block is not owned\");\n        return metadataGenerator.tokenMetadata(b.tokenId, b.number, b.imgURL);\n    }\n\n    function uri(uint256 id) public view override returns (string memory) {\n        return generateMetadataURI(id);\n    }\n\n    function _authorizeUpgrade(address newImplementation)\n        internal\n        override\n        onlyOwner\n    {}\n}\n",
  "sourcePath": "/Users/alberthuang/code/art-contracts/contracts/Web3Sword.sol",
  "compiler": {
    "name": "solc",
    "version": "0.8.9+commit.e5eed63a.Emscripten.clang"
  },
  "schemaVersion": "3.4.5",
  "updatedAt": "2022-03-14T11:57:42.769Z",
  "networkType": "ethereum",
  "devdoc": {
    "kind": "dev",
    "methods": {
      "balanceOf(address,uint256)": {
        "details": "See {IERC1155-balanceOf}. Requirements: - `account` cannot be the zero address."
      },
      "balanceOfBatch(address[],uint256[])": {
        "details": "See {IERC1155-balanceOfBatch}. Requirements: - `accounts` and `ids` must have the same length."
      },
      "isApprovedForAll(address,address)": {
        "details": "See {IERC1155-isApprovedForAll}."
      },
      "owner()": {
        "details": "Returns the address of the current owner."
      },
      "proxiableUUID()": {
        "details": "Implementation of the ERC1822 {proxiableUUID} function. This returns the storage slot used by the implementation. It is used to validate that the this implementation remains valid after an upgrade. IMPORTANT: A proxy pointing at a proxiable contract should not be considered proxiable itself, because this risks bricking a proxy that upgrades to it, by delegating to itself until out of gas. Thus it is critical that this function revert if invoked through a proxy. This is guaranteed by the `notDelegated` modifier."
      },
      "renounceOwnership()": {
        "details": "Leaves the contract without owner. It will not be possible to call `onlyOwner` functions anymore. Can only be called by the current owner. NOTE: Renouncing ownership will leave the contract without an owner, thereby removing any functionality that is only available to the owner."
      },
      "safeBatchTransferFrom(address,address,uint256[],uint256[],bytes)": {
        "details": "See {IERC1155-safeBatchTransferFrom}."
      },
      "safeTransferFrom(address,address,uint256,uint256,bytes)": {
        "details": "See {IERC1155-safeTransferFrom}."
      },
      "setApprovalForAll(address,bool)": {
        "details": "See {IERC1155-setApprovalForAll}."
      },
      "supportsInterface(bytes4)": {
        "details": "See {IERC165-supportsInterface}."
      },
      "transferOwnership(address)": {
        "details": "Transfers ownership of the contract to a new account (`newOwner`). Can only be called by the current owner."
      },
      "upgradeTo(address)": {
        "details": "Upgrade the implementation of the proxy to `newImplementation`. Calls {_authorizeUpgrade}. Emits an {Upgraded} event."
      },
      "upgradeToAndCall(address,bytes)": {
        "details": "Upgrade the implementation of the proxy to `newImplementation`, and subsequently execute the function call encoded in `data`. Calls {_authorizeUpgrade}. Emits an {Upgraded} event."
      }
    },
    "version": 1
  },
  "userdoc": {
    "kind": "user",
    "methods": {},
    "version": 1
  }
}